{
  "_format": "hh-sol-artifact-1",
  "contractName": "NFT",
  "sourceName": "src/backend/contracts/NFT.sol",
  "abi": [
    {
      "inputs": [],
      "stateMutability": "nonpayable",
      "type": "constructor"
    },
    {
      "anonymous": false,
      "inputs": [
        {
          "indexed": true,
          "internalType": "address",
          "name": "owner",
          "type": "address"
        },
        {
          "indexed": true,
          "internalType": "address",
          "name": "approved",
          "type": "address"
        },
        {
          "indexed": true,
          "internalType": "uint256",
          "name": "tokenId",
          "type": "uint256"
        }
      ],
      "name": "Approval",
      "type": "event"
    },
    {
      "anonymous": false,
      "inputs": [
        {
          "indexed": true,
          "internalType": "address",
          "name": "owner",
          "type": "address"
        },
        {
          "indexed": true,
          "internalType": "address",
          "name": "operator",
          "type": "address"
        },
        {
          "indexed": false,
          "internalType": "bool",
          "name": "approved",
          "type": "bool"
        }
      ],
      "name": "ApprovalForAll",
      "type": "event"
    },
    {
      "anonymous": false,
      "inputs": [
        {
          "indexed": true,
          "internalType": "uint256",
          "name": "tokenId",
          "type": "uint256"
        },
        {
          "indexed": true,
          "internalType": "address",
          "name": "minter",
          "type": "address"
        }
      ],
      "name": "NFTMinted",
      "type": "event"
    },
    {
      "anonymous": false,
      "inputs": [
        {
          "indexed": true,
          "internalType": "address",
          "name": "from",
          "type": "address"
        },
        {
          "indexed": true,
          "internalType": "address",
          "name": "to",
          "type": "address"
        },
        {
          "indexed": true,
          "internalType": "uint256",
          "name": "tokenId",
          "type": "uint256"
        }
      ],
      "name": "Transfer",
      "type": "event"
    },
    {
      "inputs": [
        {
          "internalType": "address",
          "name": "to",
          "type": "address"
        },
        {
          "internalType": "uint256",
          "name": "tokenId",
          "type": "uint256"
        }
      ],
      "name": "approve",
      "outputs": [],
      "stateMutability": "nonpayable",
      "type": "function"
    },
    {
      "inputs": [
        {
          "internalType": "uint256",
          "name": "tokenId",
          "type": "uint256"
        },
        {
          "internalType": "address",
          "name": "to",
          "type": "address"
        }
      ],
      "name": "approveSpecific",
      "outputs": [],
      "stateMutability": "nonpayable",
      "type": "function"
    },
    {
      "inputs": [
        {
          "internalType": "address",
          "name": "owner",
          "type": "address"
        }
      ],
      "name": "balanceOf",
      "outputs": [
        {
          "internalType": "uint256",
          "name": "",
          "type": "uint256"
        }
      ],
      "stateMutability": "view",
      "type": "function"
    },
    {
      "inputs": [
        {
          "internalType": "uint256",
          "name": "tokenId",
          "type": "uint256"
        }
      ],
      "name": "getApproved",
      "outputs": [
        {
          "internalType": "address",
          "name": "",
          "type": "address"
        }
      ],
      "stateMutability": "view",
      "type": "function"
    },
    {
      "inputs": [
        {
          "internalType": "address",
          "name": "owner",
          "type": "address"
        },
        {
          "internalType": "address",
          "name": "operator",
          "type": "address"
        }
      ],
      "name": "isApprovedForAll",
      "outputs": [
        {
          "internalType": "bool",
          "name": "",
          "type": "bool"
        }
      ],
      "stateMutability": "view",
      "type": "function"
    },
    {
      "inputs": [
        {
          "internalType": "string",
          "name": "_tokenURI",
          "type": "string"
        }
      ],
      "name": "mint",
      "outputs": [
        {
          "internalType": "uint256",
          "name": "",
          "type": "uint256"
        }
      ],
      "stateMutability": "nonpayable",
      "type": "function"
    },
    {
      "inputs": [],
      "name": "name",
      "outputs": [
        {
          "internalType": "string",
          "name": "",
          "type": "string"
        }
      ],
      "stateMutability": "view",
      "type": "function"
    },
    {
      "inputs": [
        {
          "internalType": "uint256",
          "name": "tokenId",
          "type": "uint256"
        }
      ],
      "name": "ownerOf",
      "outputs": [
        {
          "internalType": "address",
          "name": "",
          "type": "address"
        }
      ],
      "stateMutability": "view",
      "type": "function"
    },
    {
      "inputs": [
        {
          "internalType": "address",
          "name": "from",
          "type": "address"
        },
        {
          "internalType": "address",
          "name": "to",
          "type": "address"
        },
        {
          "internalType": "uint256",
          "name": "tokenId",
          "type": "uint256"
        }
      ],
      "name": "safeTransferFrom",
      "outputs": [],
      "stateMutability": "nonpayable",
      "type": "function"
    },
    {
      "inputs": [
        {
          "internalType": "address",
          "name": "from",
          "type": "address"
        },
        {
          "internalType": "address",
          "name": "to",
          "type": "address"
        },
        {
          "internalType": "uint256",
          "name": "tokenId",
          "type": "uint256"
        },
        {
          "internalType": "bytes",
          "name": "_data",
          "type": "bytes"
        }
      ],
      "name": "safeTransferFrom",
      "outputs": [],
      "stateMutability": "nonpayable",
      "type": "function"
    },
    {
      "inputs": [
        {
          "internalType": "address",
          "name": "operator",
          "type": "address"
        },
        {
          "internalType": "bool",
          "name": "approved",
          "type": "bool"
        }
      ],
      "name": "setApprovalForAll",
      "outputs": [],
      "stateMutability": "nonpayable",
      "type": "function"
    },
    {
      "inputs": [
        {
          "internalType": "bytes4",
          "name": "interfaceId",
          "type": "bytes4"
        }
      ],
      "name": "supportsInterface",
      "outputs": [
        {
          "internalType": "bool",
          "name": "",
          "type": "bool"
        }
      ],
      "stateMutability": "view",
      "type": "function"
    },
    {
      "inputs": [],
      "name": "symbol",
      "outputs": [
        {
          "internalType": "string",
          "name": "",
          "type": "string"
        }
      ],
      "stateMutability": "view",
      "type": "function"
    },
    {
      "inputs": [],
      "name": "tokenCount",
      "outputs": [
        {
          "internalType": "uint256",
          "name": "",
          "type": "uint256"
        }
      ],
      "stateMutability": "view",
      "type": "function"
    },
    {
      "inputs": [
        {
          "internalType": "uint256",
          "name": "tokenId",
          "type": "uint256"
        }
      ],
      "name": "tokenURI",
      "outputs": [
        {
          "internalType": "string",
          "name": "",
          "type": "string"
        }
      ],
      "stateMutability": "view",
      "type": "function"
    },
    {
      "inputs": [
        {
          "internalType": "address",
          "name": "from",
          "type": "address"
        },
        {
          "internalType": "address",
          "name": "to",
          "type": "address"
        },
        {
          "internalType": "uint256",
          "name": "tokenId",
          "type": "uint256"
        }
      ],
      "name": "transferFrom",
      "outputs": [],
      "stateMutability": "nonpayable",
      "type": "function"
    }
  ],
  "bytecode": "0x60806040523480156200001157600080fd5b506040518060400160405280600881526020017f44417070204e46540000000000000000000000000000000000000000000000008152506040518060400160405280600481526020017f4441505000000000000000000000000000000000000000000000000000000000815250816000908051906020019062000096929190620000b8565b508060019080519060200190620000af929190620000b8565b505050620001cd565b828054620000c69062000168565b90600052602060002090601f016020900481019282620000ea576000855562000136565b82601f106200010557805160ff191683800117855562000136565b8280016001018555821562000136579182015b828111156200013557825182559160200191906001019062000118565b5b50905062000145919062000149565b5090565b5b80821115620001645760008160009055506001016200014a565b5090565b600060028204905060018216806200018157607f821691505b602082108114156200019857620001976200019e565b5b50919050565b7f4e487b7100000000000000000000000000000000000000000000000000000000600052602260045260246000fd5b612da180620001dd6000396000f3fe608060405234801561001057600080fd5b50600436106101005760003560e01c806395d89b4111610097578063b88d4fde11610066578063b88d4fde146102ab578063c87b56dd146102c7578063d85d3d27146102f7578063e985e9c51461032757610100565b806395d89b41146102375780639f181b5e14610255578063a22cb46514610273578063b6864e081461028f57610100565b806323b872dd116100d357806323b872dd1461019f57806342842e0e146101bb5780636352211e146101d757806370a082311461020757610100565b806301ffc9a71461010557806306fdde0314610135578063081812fc14610153578063095ea7b314610183575b600080fd5b61011f600480360381019061011a9190611d3f565b610357565b60405161012c91906121e5565b60405180910390f35b61013d610439565b60405161014a9190612200565b60405180910390f35b61016d60048036038101906101689190611dd2565b6104cb565b60405161017a919061217e565b60405180910390f35b61019d60048036038101906101989190611d03565b610550565b005b6101b960048036038101906101b49190611bfd565b610668565b005b6101d560048036038101906101d09190611bfd565b6106c8565b005b6101f160048036038101906101ec9190611dd2565b6106e8565b6040516101fe919061217e565b60405180910390f35b610221600480360381019061021c9190611b98565b61079a565b60405161022e9190612442565b60405180910390f35b61023f610852565b60405161024c9190612200565b60405180910390f35b61025d6108e4565b60405161026a9190612442565b60405180910390f35b61028d60048036038101906102889190611cc7565b6108ea565b005b6102a960048036038101906102a49190611dfb565b610900565b005b6102c560048036038101906102c09190611c4c565b610957565b005b6102e160048036038101906102dc9190611dd2565b6109b9565b6040516102ee9190612200565b60405180910390f35b610311600480360381019061030c9190611d91565b610b0b565b60405161031e9190612442565b60405180910390f35b610341600480360381019061033c9190611bc1565b610b8d565b60405161034e91906121e5565b60405180910390f35b60007f80ac58cd000000000000000000000000000000000000000000000000000000007bffffffffffffffffffffffffffffffffffffffffffffffffffffffff1916827bffffffffffffffffffffffffffffffffffffffffffffffffffffffff1916148061042257507f5b5e139f000000000000000000000000000000000000000000000000000000007bffffffffffffffffffffffffffffffffffffffffffffffffffffffff1916827bffffffffffffffffffffffffffffffffffffffffffffffffffffffff1916145b80610432575061043182610c21565b5b9050919050565b60606000805461044890612698565b80601f016020809104026020016040519081016040528092919081815260200182805461047490612698565b80156104c15780601f10610496576101008083540402835291602001916104c1565b820191906000526020600020905b8154815290600101906020018083116104a457829003601f168201915b5050505050905090565b60006104d682610c8b565b610515576040517f08c379a000000000000000000000000000000000000000000000000000000000815260040161050c906123a2565b60405180910390fd5b6004600083815260200190815260200160002060009054906101000a900473ffffffffffffffffffffffffffffffffffffffff169050919050565b600061055b826106e8565b90508073ffffffffffffffffffffffffffffffffffffffff168373ffffffffffffffffffffffffffffffffffffffff1614156105cc576040517f08c379a00000000000000000000000000000000000000000000000000000000081526004016105c3906123e2565b60405180910390fd5b8073ffffffffffffffffffffffffffffffffffffffff166105eb610cf7565b73ffffffffffffffffffffffffffffffffffffffff16148061061a575061061981610614610cf7565b610b8d565b5b610659576040517f08c379a0000000000000000000000000000000000000000000000000000000008152600401610650906122e2565b60405180910390fd5b6106638383610cff565b505050565b610679610673610cf7565b82610db8565b6106b8576040517f08c379a00000000000000000000000000000000000000000000000000000000081526004016106af90612402565b60405180910390fd5b6106c3838383610e96565b505050565b6106e383838360405180602001604052806000815250610957565b505050565b6000806002600084815260200190815260200160002060009054906101000a900473ffffffffffffffffffffffffffffffffffffffff169050600073ffffffffffffffffffffffffffffffffffffffff168173ffffffffffffffffffffffffffffffffffffffff161415610791576040517f08c379a000000000000000000000000000000000000000000000000000000000815260040161078890612322565b60405180910390fd5b80915050919050565b60008073ffffffffffffffffffffffffffffffffffffffff168273ffffffffffffffffffffffffffffffffffffffff16141561080b576040517f08c379a000000000000000000000000000000000000000000000000000000000815260040161080290612302565b60405180910390fd5b600360008373ffffffffffffffffffffffffffffffffffffffff1673ffffffffffffffffffffffffffffffffffffffff168152602001908152602001600020549050919050565b60606001805461086190612698565b80601f016020809104026020016040519081016040528092919081815260200182805461088d90612698565b80156108da5780601f106108af576101008083540402835291602001916108da565b820191906000526020600020905b8154815290600101906020018083116108bd57829003601f168201915b5050505050905090565b60075481565b6108fc6108f5610cf7565b83836110fd565b5050565b61090a3383610db8565b610949576040517f08c379a000000000000000000000000000000000000000000000000000000000815260040161094090612422565b60405180910390fd5b6109538183610cff565b5050565b610968610962610cf7565b83610db8565b6109a7576040517f08c379a000000000000000000000000000000000000000000000000000000000815260040161099e90612402565b60405180910390fd5b6109b38484848461126a565b50505050565b60606109c482610c8b565b610a03576040517f08c379a00000000000000000000000000000000000000000000000000000000081526004016109fa90612382565b60405180910390fd5b6000600660008481526020019081526020016000208054610a2390612698565b80601f0160208091040260200160405190810160405280929190818152602001828054610a4f90612698565b8015610a9c5780601f10610a7157610100808354040283529160200191610a9c565b820191906000526020600020905b815481529060010190602001808311610a7f57829003601f168201915b505050505090506000610aad6112c6565b9050600081511415610ac3578192505050610b06565b600082511115610af8578082604051602001610ae092919061215a565b60405160208183030381529060405292505050610b06565b610b01846112dd565b925050505b919050565b600060076000815480929190610b20906126fb565b9190505550610b3133600754611384565b610b3d600754836113a2565b3373ffffffffffffffffffffffffffffffffffffffff166007547f0176f203df400d7bd5f1b1c9ef36c16709bf3b5d9fd35f000a6bae32393f66c360405160405180910390a36007549050919050565b6000600560008473ffffffffffffffffffffffffffffffffffffffff1673ffffffffffffffffffffffffffffffffffffffff16815260200190815260200160002060008373ffffffffffffffffffffffffffffffffffffffff1673ffffffffffffffffffffffffffffffffffffffff16815260200190815260200160002060009054906101000a900460ff16905092915050565b60007f01ffc9a7000000000000000000000000000000000000000000000000000000007bffffffffffffffffffffffffffffffffffffffffffffffffffffffff1916827bffffffffffffffffffffffffffffffffffffffffffffffffffffffff1916149050919050565b60008073ffffffffffffffffffffffffffffffffffffffff166002600084815260200190815260200160002060009054906101000a900473ffffffffffffffffffffffffffffffffffffffff1673ffffffffffffffffffffffffffffffffffffffff1614159050919050565b600033905090565b816004600083815260200190815260200160002060006101000a81548173ffffffffffffffffffffffffffffffffffffffff021916908373ffffffffffffffffffffffffffffffffffffffff160217905550808273ffffffffffffffffffffffffffffffffffffffff16610d72836106e8565b73ffffffffffffffffffffffffffffffffffffffff167f8c5be1e5ebec7d5bd14f71427d1e84f3dd0314c0f7b2291e5b200ac8c7c3b92560405160405180910390a45050565b6000610dc382610c8b565b610e02576040517f08c379a0000000000000000000000000000000000000000000000000000000008152600401610df9906122c2565b60405180910390fd5b6000610e0d836106e8565b90508073ffffffffffffffffffffffffffffffffffffffff168473ffffffffffffffffffffffffffffffffffffffff161480610e7c57508373ffffffffffffffffffffffffffffffffffffffff16610e64846104cb565b73ffffffffffffffffffffffffffffffffffffffff16145b80610e8d5750610e8c8185610b8d565b5b91505092915050565b8273ffffffffffffffffffffffffffffffffffffffff16610eb6826106e8565b73ffffffffffffffffffffffffffffffffffffffff1614610f0c576040517f08c379a0000000000000000000000000000000000000000000000000000000008152600401610f0390612242565b60405180910390fd5b600073ffffffffffffffffffffffffffffffffffffffff168273ffffffffffffffffffffffffffffffffffffffff161415610f7c576040517f08c379a0000000000000000000000000000000000000000000000000000000008152600401610f7390612282565b60405180910390fd5b610f87838383611416565b610f92600082610cff565b6001600360008573ffffffffffffffffffffffffffffffffffffffff1673ffffffffffffffffffffffffffffffffffffffff1681526020019081526020016000206000828254610fe291906125ae565b925050819055506001600360008473ffffffffffffffffffffffffffffffffffffffff1673ffffffffffffffffffffffffffffffffffffffff16815260200190815260200160002060008282546110399190612527565b92505081905550816002600083815260200190815260200160002060006101000a81548173ffffffffffffffffffffffffffffffffffffffff021916908373ffffffffffffffffffffffffffffffffffffffff160217905550808273ffffffffffffffffffffffffffffffffffffffff168473ffffffffffffffffffffffffffffffffffffffff167fddf252ad1be2c89b69c2b068fc378daa952ba7f163c4a11628f55a4df523b3ef60405160405180910390a46110f883838361141b565b505050565b8173ffffffffffffffffffffffffffffffffffffffff168373ffffffffffffffffffffffffffffffffffffffff16141561116c576040517f08c379a0000000000000000000000000000000000000000000000000000000008152600401611163906122a2565b60405180910390fd5b80600560008573ffffffffffffffffffffffffffffffffffffffff1673ffffffffffffffffffffffffffffffffffffffff16815260200190815260200160002060008473ffffffffffffffffffffffffffffffffffffffff1673ffffffffffffffffffffffffffffffffffffffff16815260200190815260200160002060006101000a81548160ff0219169083151502179055508173ffffffffffffffffffffffffffffffffffffffff168373ffffffffffffffffffffffffffffffffffffffff167f17307eab39ab6107e8899845ad3d59bd9653f200f220920489ca2b5937696c318360405161125d91906121e5565b60405180910390a3505050565b611275848484610e96565b61128184848484611420565b6112c0576040517f08c379a00000000000000000000000000000000000000000000000000000000081526004016112b790612222565b60405180910390fd5b50505050565b606060405180602001604052806000815250905090565b60606112e882610c8b565b611327576040517f08c379a000000000000000000000000000000000000000000000000000000000815260040161131e906123c2565b60405180910390fd5b60006113316112c6565b90506000815111611351576040518060200160405280600081525061137c565b8061135b846115b7565b60405160200161136c92919061215a565b6040516020818303038152906040525b915050919050565b61139e828260405180602001604052806000815250611764565b5050565b6113ab82610c8b565b6113ea576040517f08c379a00000000000000000000000000000000000000000000000000000000081526004016113e190612342565b60405180910390fd5b806006600084815260200190815260200160002090805190602001906114119291906119bc565b505050565b505050565b505050565b60006114418473ffffffffffffffffffffffffffffffffffffffff166117bf565b156115aa578373ffffffffffffffffffffffffffffffffffffffff1663150b7a0261146a610cf7565b8786866040518563ffffffff1660e01b815260040161148c9493929190612199565b602060405180830381600087803b1580156114a657600080fd5b505af19250505080156114d757506040513d601f19601f820116820180604052508101906114d49190611d68565b60015b61155a573d8060008114611507576040519150601f19603f3d011682016040523d82523d6000602084013e61150c565b606091505b50600081511415611552576040517f08c379a000000000000000000000000000000000000000000000000000000000815260040161154990612222565b60405180910390fd5b805181602001fd5b63150b7a0260e01b7bffffffffffffffffffffffffffffffffffffffffffffffffffffffff1916817bffffffffffffffffffffffffffffffffffffffffffffffffffffffff1916149150506115af565b600190505b949350505050565b606060008214156115ff576040518060400160405280600181526020017f3000000000000000000000000000000000000000000000000000000000000000815250905061175f565b600082905060005b6000821461163157808061161a906126fb565b915050600a8261162a919061257d565b9150611607565b60008167ffffffffffffffff811115611673577f4e487b7100000000000000000000000000000000000000000000000000000000600052604160045260246000fd5b6040519080825280601f01601f1916602001820160405280156116a55781602001600182028036833780820191505090505b5090505b60008514611758576001826116be91906125ae565b9150600a856116cd9190612744565b60306116d99190612527565b60f81b818381518110611715577f4e487b7100000000000000000000000000000000000000000000000000000000600052603260045260246000fd5b60200101907effffffffffffffffffffffffffffffffffffffffffffffffffffffffffffff1916908160001a905350600a85611751919061257d565b94506116a9565b8093505050505b919050565b61176e83836117e2565b61177b6000848484611420565b6117ba576040517f08c379a00000000000000000000000000000000000000000000000000000000081526004016117b190612222565b60405180910390fd5b505050565b6000808273ffffffffffffffffffffffffffffffffffffffff163b119050919050565b600073ffffffffffffffffffffffffffffffffffffffff168273ffffffffffffffffffffffffffffffffffffffff161415611852576040517f08c379a000000000000000000000000000000000000000000000000000000000815260040161184990612362565b60405180910390fd5b61185b81610c8b565b1561189b576040517f08c379a000000000000000000000000000000000000000000000000000000000815260040161189290612262565b60405180910390fd5b6118a760008383611416565b6001600360008473ffffffffffffffffffffffffffffffffffffffff1673ffffffffffffffffffffffffffffffffffffffff16815260200190815260200160002060008282546118f79190612527565b92505081905550816002600083815260200190815260200160002060006101000a81548173ffffffffffffffffffffffffffffffffffffffff021916908373ffffffffffffffffffffffffffffffffffffffff160217905550808273ffffffffffffffffffffffffffffffffffffffff16600073ffffffffffffffffffffffffffffffffffffffff167fddf252ad1be2c89b69c2b068fc378daa952ba7f163c4a11628f55a4df523b3ef60405160405180910390a46119b86000838361141b565b5050565b8280546119c890612698565b90600052602060002090601f0160209004810192826119ea5760008555611a31565b82601f10611a0357805160ff1916838001178555611a31565b82800160010185558215611a31579182015b82811115611a30578251825591602001919060010190611a15565b5b509050611a3e9190611a42565b5090565b5b80821115611a5b576000816000905550600101611a43565b5090565b6000611a72611a6d84612482565b61245d565b905082815260208101848484011115611a8a57600080fd5b611a95848285612656565b509392505050565b6000611ab0611aab846124b3565b61245d565b905082815260208101848484011115611ac857600080fd5b611ad3848285612656565b509392505050565b600081359050611aea81612d0f565b92915050565b600081359050611aff81612d26565b92915050565b600081359050611b1481612d3d565b92915050565b600081519050611b2981612d3d565b92915050565b600082601f830112611b4057600080fd5b8135611b50848260208601611a5f565b91505092915050565b600082601f830112611b6a57600080fd5b8135611b7a848260208601611a9d565b91505092915050565b600081359050611b9281612d54565b92915050565b600060208284031215611baa57600080fd5b6000611bb884828501611adb565b91505092915050565b60008060408385031215611bd457600080fd5b6000611be285828601611adb565b9250506020611bf385828601611adb565b9150509250929050565b600080600060608486031215611c1257600080fd5b6000611c2086828701611adb565b9350506020611c3186828701611adb565b9250506040611c4286828701611b83565b9150509250925092565b60008060008060808587031215611c6257600080fd5b6000611c7087828801611adb565b9450506020611c8187828801611adb565b9350506040611c9287828801611b83565b925050606085013567ffffffffffffffff811115611caf57600080fd5b611cbb87828801611b2f565b91505092959194509250565b60008060408385031215611cda57600080fd5b6000611ce885828601611adb565b9250506020611cf985828601611af0565b9150509250929050565b60008060408385031215611d1657600080fd5b6000611d2485828601611adb565b9250506020611d3585828601611b83565b9150509250929050565b600060208284031215611d5157600080fd5b6000611d5f84828501611b05565b91505092915050565b600060208284031215611d7a57600080fd5b6000611d8884828501611b1a565b91505092915050565b600060208284031215611da357600080fd5b600082013567ffffffffffffffff811115611dbd57600080fd5b611dc984828501611b59565b91505092915050565b600060208284031215611de457600080fd5b6000611df284828501611b83565b91505092915050565b60008060408385031215611e0e57600080fd5b6000611e1c85828601611b83565b9250506020611e2d85828601611adb565b9150509250929050565b611e40816125e2565b82525050565b611e4f816125f4565b82525050565b6000611e60826124e4565b611e6a81856124fa565b9350611e7a818560208601612665565b611e8381612831565b840191505092915050565b6000611e99826124ef565b611ea3818561250b565b9350611eb3818560208601612665565b611ebc81612831565b840191505092915050565b6000611ed2826124ef565b611edc818561251c565b9350611eec818560208601612665565b80840191505092915050565b6000611f0560328361250b565b9150611f1082612842565b604082019050919050565b6000611f2860258361250b565b9150611f3382612891565b604082019050919050565b6000611f4b601c8361250b565b9150611f56826128e0565b602082019050919050565b6000611f6e60248361250b565b9150611f7982612909565b604082019050919050565b6000611f9160198361250b565b9150611f9c82612958565b602082019050919050565b6000611fb4602c8361250b565b9150611fbf82612981565b604082019050919050565b6000611fd760388361250b565b9150611fe2826129d0565b604082019050919050565b6000611ffa602a8361250b565b915061200582612a1f565b604082019050919050565b600061201d60298361250b565b915061202882612a6e565b604082019050919050565b6000612040602e8361250b565b915061204b82612abd565b604082019050919050565b600061206360208361250b565b915061206e82612b0c565b602082019050919050565b600061208660318361250b565b915061209182612b35565b604082019050919050565b60006120a9602c8361250b565b91506120b482612b84565b604082019050919050565b60006120cc602f8361250b565b91506120d782612bd3565b604082019050919050565b60006120ef60218361250b565b91506120fa82612c22565b604082019050919050565b600061211260318361250b565b915061211d82612c71565b604082019050919050565b6000612135602d8361250b565b915061214082612cc0565b604082019050919050565b6121548161264c565b82525050565b60006121668285611ec7565b91506121728284611ec7565b91508190509392505050565b60006020820190506121936000830184611e37565b92915050565b60006080820190506121ae6000830187611e37565b6121bb6020830186611e37565b6121c8604083018561214b565b81810360608301526121da8184611e55565b905095945050505050565b60006020820190506121fa6000830184611e46565b92915050565b6000602082019050818103600083015261221a8184611e8e565b905092915050565b6000602082019050818103600083015261223b81611ef8565b9050919050565b6000602082019050818103600083015261225b81611f1b565b9050919050565b6000602082019050818103600083015261227b81611f3e565b9050919050565b6000602082019050818103600083015261229b81611f61565b9050919050565b600060208201905081810360008301526122bb81611f84565b9050919050565b600060208201905081810360008301526122db81611fa7565b9050919050565b600060208201905081810360008301526122fb81611fca565b9050919050565b6000602082019050818103600083015261231b81611fed565b9050919050565b6000602082019050818103600083015261233b81612010565b9050919050565b6000602082019050818103600083015261235b81612033565b9050919050565b6000602082019050818103600083015261237b81612056565b9050919050565b6000602082019050818103600083015261239b81612079565b9050919050565b600060208201905081810360008301526123bb8161209c565b9050919050565b600060208201905081810360008301526123db816120bf565b9050919050565b600060208201905081810360008301526123fb816120e2565b9050919050565b6000602082019050818103600083015261241b81612105565b9050919050565b6000602082019050818103600083015261243b81612128565b9050919050565b6000602082019050612457600083018461214b565b92915050565b6000612467612478565b905061247382826126ca565b919050565b6000604051905090565b600067ffffffffffffffff82111561249d5761249c612802565b5b6124a682612831565b9050602081019050919050565b600067ffffffffffffffff8211156124ce576124cd612802565b5b6124d782612831565b9050602081019050919050565b600081519050919050565b600081519050919050565b600082825260208201905092915050565b600082825260208201905092915050565b600081905092915050565b60006125328261264c565b915061253d8361264c565b9250827fffffffffffffffffffffffffffffffffffffffffffffffffffffffffffffffff0382111561257257612571612775565b5b828201905092915050565b60006125888261264c565b91506125938361264c565b9250826125a3576125a26127a4565b5b828204905092915050565b60006125b98261264c565b91506125c48361264c565b9250828210156125d7576125d6612775565b5b828203905092915050565b60006125ed8261262c565b9050919050565b60008115159050919050565b60007fffffffff0000000000000000000000000000000000000000000000000000000082169050919050565b600073ffffffffffffffffffffffffffffffffffffffff82169050919050565b6000819050919050565b82818337600083830152505050565b60005b83811015612683578082015181840152602081019050612668565b83811115612692576000848401525b50505050565b600060028204905060018216806126b057607f821691505b602082108114156126c4576126c36127d3565b5b50919050565b6126d382612831565b810181811067ffffffffffffffff821117156126f2576126f1612802565b5b80604052505050565b60006127068261264c565b91507fffffffffffffffffffffffffffffffffffffffffffffffffffffffffffffffff82141561273957612738612775565b5b600182019050919050565b600061274f8261264c565b915061275a8361264c565b92508261276a576127696127a4565b5b828206905092915050565b7f4e487b7100000000000000000000000000000000000000000000000000000000600052601160045260246000fd5b7f4e487b7100000000000000000000000000000000000000000000000000000000600052601260045260246000fd5b7f4e487b7100000000000000000000000000000000000000000000000000000000600052602260045260246000fd5b7f4e487b7100000000000000000000000000000000000000000000000000000000600052604160045260246000fd5b6000601f19601f8301169050919050565b7f4552433732313a207472616e7366657220746f206e6f6e20455243373231526560008201527f63656976657220696d706c656d656e7465720000000000000000000000000000602082015250565b7f4552433732313a207472616e736665722066726f6d20696e636f72726563742060008201527f6f776e6572000000000000000000000000000000000000000000000000000000602082015250565b7f4552433732313a20746f6b656e20616c7265616479206d696e74656400000000600082015250565b7f4552433732313a207472616e7366657220746f20746865207a65726f2061646460008201527f7265737300000000000000000000000000000000000000000000000000000000602082015250565b7f4552433732313a20617070726f766520746f2063616c6c657200000000000000600082015250565b7f4552433732313a206f70657261746f7220717565727920666f72206e6f6e657860008201527f697374656e7420746f6b656e0000000000000000000000000000000000000000602082015250565b7f4552433732313a20617070726f76652063616c6c6572206973206e6f74206f7760008201527f6e6572206e6f7220617070726f76656420666f7220616c6c0000000000000000602082015250565b7f4552433732313a2062616c616e636520717565727920666f7220746865207a6560008201527f726f206164647265737300000000000000000000000000000000000000000000602082015250565b7f4552433732313a206f776e657220717565727920666f72206e6f6e657869737460008201527f656e7420746f6b656e0000000000000000000000000000000000000000000000602082015250565b7f45524337323155524953746f726167653a2055524920736574206f66206e6f6e60008201527f6578697374656e7420746f6b656e000000000000000000000000000000000000602082015250565b7f4552433732313a206d696e7420746f20746865207a65726f2061646472657373600082015250565b7f45524337323155524953746f726167653a2055524920717565727920666f722060008201527f6e6f6e6578697374656e7420746f6b656e000000000000000000000000000000602082015250565b7f4552433732313a20617070726f76656420717565727920666f72206e6f6e657860008201527f697374656e7420746f6b656e0000000000000000000000000000000000000000602082015250565b7f4552433732314d657461646174613a2055524920717565727920666f72206e6f60008201527f6e6578697374656e7420746f6b656e0000000000000000000000000000000000602082015250565b7f4552433732313a20617070726f76616c20746f2063757272656e74206f776e6560008201527f7200000000000000000000000000000000000000000000000000000000000000602082015250565b7f4552433732313a207472616e736665722063616c6c6572206973206e6f74206f60008201527f776e6572206e6f7220617070726f766564000000000000000000000000000000602082015250565b7f43616c6c6572206973206e6f74206f776e6572206e6f7220617070726f76656460008201527f20666f722074686973204e465400000000000000000000000000000000000000602082015250565b612d18816125e2565b8114612d2357600080fd5b50565b612d2f816125f4565b8114612d3a57600080fd5b50565b612d4681612600565b8114612d5157600080fd5b50565b612d5d8161264c565b8114612d6857600080fd5b5056fea2646970667358221220aa51cd0522301edafee85a12f9c257c8fde7d9192eca491ae2e6cbba31ed1db864736f6c63430008040033",
  "linkReferences": {},
  "deployedLinkReferences": {}
}